{
  "contractName": "Migrations",
  "abi": [
    {
      "constant": true,
      "inputs": [],
      "name": "last_completed_migration",
      "outputs": [
        {
          "name": "",
          "type": "uint256"
        }
      ],
      "payable": false,
      "stateMutability": "view",
      "type": "function"
    },
    {
      "constant": true,
      "inputs": [],
      "name": "owner",
      "outputs": [
        {
          "name": "",
          "type": "address"
        }
      ],
      "payable": false,
      "stateMutability": "view",
      "type": "function"
    },
    {
      "constant": false,
      "inputs": [
        {
          "name": "newOwner",
          "type": "address"
        }
      ],
      "name": "transferOwnership",
      "outputs": [],
      "payable": false,
      "stateMutability": "nonpayable",
      "type": "function"
    },
    {
      "anonymous": false,
      "inputs": [
        {
          "indexed": true,
          "name": "previousOwner",
          "type": "address"
        },
        {
          "indexed": true,
          "name": "newOwner",
          "type": "address"
        }
      ],
      "name": "OwnershipTransferred",
      "type": "event"
    },
    {
      "constant": false,
      "inputs": [
        {
          "name": "completed",
          "type": "uint256"
        }
      ],
      "name": "setCompleted",
      "outputs": [],
      "payable": false,
      "stateMutability": "nonpayable",
      "type": "function"
    },
    {
      "constant": false,
      "inputs": [
        {
          "name": "new_address",
          "type": "address"
        }
      ],
      "name": "upgrade",
      "outputs": [],
      "payable": false,
      "stateMutability": "nonpayable",
      "type": "function"
    }
  ],
  "bytecode": "0x608060405260008054600160a060020a033316600160a060020a03199091161790556102bf806100306000396000f30060806040526004361061006c5763ffffffff7c01000000000000000000000000000000000000000000000000000000006000350416630900f0108114610071578063445df0ac146100945780638da5cb5b146100bb578063f2fde38b146100ec578063fdacd5761461010d575b600080fd5b34801561007d57600080fd5b50610092600160a060020a0360043516610125565b005b3480156100a057600080fd5b506100a96101c4565b60408051918252519081900360200190f35b3480156100c757600080fd5b506100d06101ca565b60408051600160a060020a039092168252519081900360200190f35b3480156100f857600080fd5b50610092600160a060020a03600435166101d9565b34801561011957600080fd5b50610092600435610273565b6000805433600160a060020a0390811691161461014157600080fd5b81905080600160a060020a031663fdacd5766001546040518263ffffffff167c010000000000000000000000000000000000000000000000000000000002815260040180828152602001915050600060405180830381600087803b1580156101a857600080fd5b505af11580156101bc573d6000803e3d6000fd5b505050505050565b60015481565b600054600160a060020a031681565b60005433600160a060020a039081169116146101f457600080fd5b80600160a060020a038116151561020a57600080fd5b60008054604051600160a060020a03808616939216917f8be0079c531659141344cd1fd0a4f28419497f9722a3daafe3b4186f6b6457e091a3506000805473ffffffffffffffffffffffffffffffffffffffff1916600160a060020a0392909216919091179055565b60005433600160a060020a0390811691161461028e57600080fd5b6001555600a165627a7a72305820a7610002bacd5ee2884b5a56df94cd56425ab77727c13dab71c0fc923db766c80029",
  "source": "pragma solidity ^0.4.23;\n\nimport { Ownable } from \"./Ownable.sol\";\n\n\n/**\n * @title Truffle Migrations contract\n * @dev It violates standard naming convention for compatibility with Truffle suite\n * @dev It extends standard implementation with changeable owner.\n */\ncontract Migrations is Ownable {\n    uint public last_completed_migration;\n\n    function setCompleted(uint completed) public onlyOwner {\n        last_completed_migration = completed;\n    }\n\n    function upgrade(address new_address) public onlyOwner {\n        Migrations upgraded = Migrations(new_address);\n        upgraded.setCompleted(last_completed_migration);\n    }\n}\n",
  "sourcePath": "/PELO/PeloToken/contracts/Migrations.sol",
  "compiler": {
    "name": "solc",
    "version": "0.4.23+commit.124ca40d.Emscripten.clang"
  },
  "schemaVersion": "2.0.0",
  "updatedAt": "2018-05-07T06:21:08.218Z"
}