{
  "contractName": "MintableToken",
  "abi": [
    {
      "constant": true,
      "inputs": [],
      "name": "maximumSupply",
      "outputs": [
        {
          "name": "",
          "type": "uint256"
        }
      ],
      "payable": false,
      "stateMutability": "view",
      "type": "function"
    },
    {
      "constant": true,
      "inputs": [],
      "name": "mintingFinished",
      "outputs": [
        {
          "name": "",
          "type": "bool"
        }
      ],
      "payable": false,
      "stateMutability": "view",
      "type": "function"
    },
    {
      "constant": false,
      "inputs": [
        {
          "name": "spender",
          "type": "address"
        },
        {
          "name": "value",
          "type": "uint256"
        }
      ],
      "name": "approve",
      "outputs": [
        {
          "name": "",
          "type": "bool"
        }
      ],
      "payable": false,
      "stateMutability": "nonpayable",
      "type": "function"
    },
    {
      "constant": true,
      "inputs": [],
      "name": "totalSupply",
      "outputs": [
        {
          "name": "",
          "type": "uint256"
        }
      ],
      "payable": false,
      "stateMutability": "view",
      "type": "function"
    },
    {
      "constant": false,
      "inputs": [
        {
          "name": "from",
          "type": "address"
        },
        {
          "name": "to",
          "type": "address"
        },
        {
          "name": "value",
          "type": "uint256"
        }
      ],
      "name": "transferFrom",
      "outputs": [
        {
          "name": "",
          "type": "bool"
        }
      ],
      "payable": false,
      "stateMutability": "nonpayable",
      "type": "function"
    },
    {
      "constant": false,
      "inputs": [
        {
          "name": "spender",
          "type": "address"
        },
        {
          "name": "subtractedValue",
          "type": "uint256"
        }
      ],
      "name": "decreaseApproval",
      "outputs": [
        {
          "name": "",
          "type": "bool"
        }
      ],
      "payable": false,
      "stateMutability": "nonpayable",
      "type": "function"
    },
    {
      "constant": true,
      "inputs": [
        {
          "name": "owner",
          "type": "address"
        }
      ],
      "name": "balanceOf",
      "outputs": [
        {
          "name": "",
          "type": "uint256"
        }
      ],
      "payable": false,
      "stateMutability": "view",
      "type": "function"
    },
    {
      "constant": true,
      "inputs": [],
      "name": "owner",
      "outputs": [
        {
          "name": "",
          "type": "address"
        }
      ],
      "payable": false,
      "stateMutability": "view",
      "type": "function"
    },
    {
      "constant": false,
      "inputs": [
        {
          "name": "to",
          "type": "address"
        },
        {
          "name": "value",
          "type": "uint256"
        }
      ],
      "name": "transfer",
      "outputs": [
        {
          "name": "",
          "type": "bool"
        }
      ],
      "payable": false,
      "stateMutability": "nonpayable",
      "type": "function"
    },
    {
      "constant": false,
      "inputs": [
        {
          "name": "spender",
          "type": "address"
        },
        {
          "name": "addedValue",
          "type": "uint256"
        }
      ],
      "name": "increaseApproval",
      "outputs": [
        {
          "name": "",
          "type": "bool"
        }
      ],
      "payable": false,
      "stateMutability": "nonpayable",
      "type": "function"
    },
    {
      "constant": true,
      "inputs": [
        {
          "name": "owner",
          "type": "address"
        },
        {
          "name": "spender",
          "type": "address"
        }
      ],
      "name": "allowance",
      "outputs": [
        {
          "name": "",
          "type": "uint256"
        }
      ],
      "payable": false,
      "stateMutability": "view",
      "type": "function"
    },
    {
      "constant": false,
      "inputs": [
        {
          "name": "newOwner",
          "type": "address"
        }
      ],
      "name": "transferOwnership",
      "outputs": [],
      "payable": false,
      "stateMutability": "nonpayable",
      "type": "function"
    },
    {
      "inputs": [
        {
          "name": "_maximumSupply",
          "type": "uint256"
        }
      ],
      "payable": false,
      "stateMutability": "nonpayable",
      "type": "constructor"
    },
    {
      "anonymous": false,
      "inputs": [
        {
          "indexed": true,
          "name": "to",
          "type": "address"
        },
        {
          "indexed": false,
          "name": "amount",
          "type": "uint256"
        }
      ],
      "name": "Mint",
      "type": "event"
    },
    {
      "anonymous": false,
      "inputs": [],
      "name": "MintFinished",
      "type": "event"
    },
    {
      "anonymous": false,
      "inputs": [
        {
          "indexed": true,
          "name": "previousOwner",
          "type": "address"
        },
        {
          "indexed": true,
          "name": "newOwner",
          "type": "address"
        }
      ],
      "name": "OwnershipTransferred",
      "type": "event"
    },
    {
      "anonymous": false,
      "inputs": [
        {
          "indexed": true,
          "name": "from",
          "type": "address"
        },
        {
          "indexed": true,
          "name": "to",
          "type": "address"
        },
        {
          "indexed": false,
          "name": "value",
          "type": "uint256"
        }
      ],
      "name": "Transfer",
      "type": "event"
    },
    {
      "anonymous": false,
      "inputs": [
        {
          "indexed": true,
          "name": "owner",
          "type": "address"
        },
        {
          "indexed": true,
          "name": "spender",
          "type": "address"
        },
        {
          "indexed": false,
          "name": "value",
          "type": "uint256"
        }
      ],
      "name": "Approval",
      "type": "event"
    },
    {
      "constant": false,
      "inputs": [
        {
          "name": "to",
          "type": "address"
        },
        {
          "name": "amount",
          "type": "uint256"
        }
      ],
      "name": "mint",
      "outputs": [
        {
          "name": "",
          "type": "bool"
        }
      ],
      "payable": false,
      "stateMutability": "nonpayable",
      "type": "function"
    },
    {
      "constant": false,
      "inputs": [],
      "name": "finishMinting",
      "outputs": [
        {
          "name": "",
          "type": "bool"
        }
      ],
      "payable": false,
      "stateMutability": "nonpayable",
      "type": "function"
    }
  ],
  "bytecode": "0x608060405234801561001057600080fd5b50604051602080610b10833981016040525160038054600160a060020a03191633600160a060020a0316179055600455610ac18061004f6000396000f3006080604052600436106100cf5763ffffffff7c01000000000000000000000000000000000000000000000000000000006000350416630480e58b81146100d457806305d2035b146100fb578063095ea7b31461012457806318160ddd1461014857806323b872dd1461015d57806340c10f191461018757806366188463146101ab57806370a08231146101cf5780637d64bcb4146101f05780638da5cb5b14610205578063a9059cbb14610236578063d73dd6231461025a578063dd62ed3e1461027e578063f2fde38b146102a5575b600080fd5b3480156100e057600080fd5b506100e96102c8565b60408051918252519081900360200190f35b34801561010757600080fd5b506101106102ce565b604080519115158252519081900360200190f35b34801561013057600080fd5b50610110600160a060020a03600435166024356102ef565b34801561015457600080fd5b506100e9610359565b34801561016957600080fd5b50610110600160a060020a036004358116906024351660443561035f565b34801561019357600080fd5b50610110600160a060020a03600435166024356104f1565b3480156101b757600080fd5b50610110600160a060020a0360043516602435610636565b3480156101db57600080fd5b506100e9600160a060020a036004351661072f565b3480156101fc57600080fd5b5061011061074a565b34801561021157600080fd5b5061021a6107f4565b60408051600160a060020a039092168252519081900360200190f35b34801561024257600080fd5b50610110600160a060020a0360043516602435610803565b34801561026657600080fd5b50610110600160a060020a0360043516602435610905565b34801561028a57600080fd5b506100e9600160a060020a03600435811690602435166109a7565b3480156102b157600080fd5b506102c6600160a060020a03600435166109d2565b005b60045481565b60035474010000000000000000000000000000000000000000900460ff1681565b600160a060020a03338116600081815260026020908152604080832094871680845294825280832086905580518681529051929493927f8c5be1e5ebec7d5bd14f71427d1e84f3dd0314c0f7b2291e5b200ac8c7c3b925929181900390910190a350600192915050565b60005490565b600082600160a060020a038116151561037757600080fd5b600160a060020a038516600090815260016020526040902054859084908111156103a057600080fd5b600160a060020a038088166000908152600260209081526040808320938a16835292905220548790879087908111156103d857600080fd5b600160a060020a038a16600090815260016020526040902054610401908963ffffffff610a6d16565b600160a060020a03808c1660009081526001602052604080822093909355908b1681522054610436908963ffffffff610a7f16565b600160a060020a03808b166000908152600160209081526040808320949094558d831682526002815283822033909316825291909152205461047e908963ffffffff610a6d16565b600160a060020a03808c16600081815260026020908152604080832033861684528252918290209490945580518c81529051928d169391927fddf252ad1be2c89b69c2b068fc378daa952ba7f163c4a11628f55a4df523b3ef929181900390910190a35060019998505050505050505050565b60035460009033600160a060020a0390811691161461050f57600080fd5b60035474010000000000000000000000000000000000000000900460ff161561053757600080fd5b8160045461055082600054610a7f90919063ffffffff16565b111561055b57600080fd5b60005461056e908463ffffffff610a7f16565b6000908155600160a060020a038516815260016020526040902054610599908463ffffffff610a7f16565b600160a060020a038516600081815260016020908152604091829020939093558051868152905191927f0f6798a560793a54c3bcfe86a93cde1e73087d944c0ea20544137d412139688592918290030190a2604080518481529051600160a060020a038616916000917fddf252ad1be2c89b69c2b068fc378daa952ba7f163c4a11628f55a4df523b3ef9181900360200190a35060019392505050565b600160a060020a0333811660009081526002602090815260408083209386168352929052908120548083111561069357600160a060020a0333811660009081526002602090815260408083209388168352929052908120556106ca565b6106a3818463ffffffff610a6d16565b600160a060020a033381166000908152600260209081526040808320938916835292905220555b600160a060020a0333811660008181526002602090815260408083209489168084529482529182902054825190815291517f8c5be1e5ebec7d5bd14f71427d1e84f3dd0314c0f7b2291e5b200ac8c7c3b9259281900390910190a35060019392505050565b600160a060020a031660009081526001602052604090205490565b60035460009033600160a060020a0390811691161461076857600080fd5b60035474010000000000000000000000000000000000000000900460ff161561079057600080fd5b6003805474ff00000000000000000000000000000000000000001916740100000000000000000000000000000000000000001790556040517fae5184fba832cb2b1f702aca6117b8d265eaf03ad33eb133f19dde0f5920fa0890600090a150600190565b600354600160a060020a031681565b600082600160a060020a038116151561081b57600080fd5b33600160a060020a038116600090815260016020526040902054849081111561084357600080fd5b600160a060020a03331660009081526001602052604090205461086c908663ffffffff610a6d16565b600160a060020a0333811660009081526001602052604080822093909355908816815220546108a1908663ffffffff610a7f16565b600160a060020a038088166000818152600160209081526040918290209490945580518981529051919333909316927fddf252ad1be2c89b69c2b068fc378daa952ba7f163c4a11628f55a4df523b3ef92918290030190a350600195945050505050565b600160a060020a03338116600090815260026020908152604080832093861683529290529081205461093d908363ffffffff610a7f16565b600160a060020a0333811660008181526002602090815260408083209489168084529482529182902085905581519485529051929391927f8c5be1e5ebec7d5bd14f71427d1e84f3dd0314c0f7b2291e5b200ac8c7c3b9259281900390910190a350600192915050565b600160a060020a03918216600090815260026020908152604080832093909416825291909152205490565b60035433600160a060020a039081169116146109ed57600080fd5b80600160a060020a0381161515610a0357600080fd5b600354604051600160a060020a038085169216907f8be0079c531659141344cd1fd0a4f28419497f9722a3daafe3b4186f6b6457e090600090a3506003805473ffffffffffffffffffffffffffffffffffffffff1916600160a060020a0392909216919091179055565b600082821115610a7957fe5b50900390565b600082820183811015610a8e57fe5b93925050505600a165627a7a72305820ed97aa6059b4def632098ca157e6d8c21be59e80231392cfab60686a9fdbf2590029",
  "source": "pragma solidity ^0.4.23;\n\nimport \"./StandardToken.sol\";\nimport \"./Ownable.sol\";\n\n\n/**\n * @title Mintable token\n * @dev Standard token with minting\n * @dev Based on https://github.com/OpenZeppelin/zeppelin-solidity\n */\ncontract MintableToken is StandardToken, Ownable {\n    bool public mintingFinished;\n    uint256 public maximumSupply;\n\n    event Mint(address indexed to, uint256 amount);\n    event MintFinished();\n\n    modifier onlyMinting() {\n        require(!mintingFinished);\n        _;\n    }\n\n    modifier onlyNotExceedingMaximumSupply(uint256 amount) {\n        require(_totalSupply.add(amount) <= maximumSupply);\n        _;\n    }\n\n    constructor (uint256 _maximumSupply) public {\n        maximumSupply = _maximumSupply;\n    }\n\n    /**\n     * @dev Creates new tokens for the given address\n     * @param to The address that will receive the minted tokens.\n     * @param amount The amount of tokens to mint.\n     * @return A boolean that indicates if the operation was successful.\n     */\n    function mint(address to, uint256 amount)\n        public\n        onlyOwner\n        onlyMinting\n        onlyNotExceedingMaximumSupply(amount)\n        returns (bool)\n    {\n        _totalSupply = _totalSupply.add(amount);\n        _balanceOf[to] = _balanceOf[to].add(amount);\n\n        emit Mint(to, amount);\n        emit Transfer(address(0), to, amount);\n\n        return true;\n    }\n\n    /**\n     * @dev Stops minting new tokens.\n     * @return True if the operation was successful.\n     */\n    function finishMinting()\n        public\n        onlyOwner\n        onlyMinting\n        returns (bool)\n    {\n        mintingFinished = true;\n\n        emit MintFinished();\n\n        return true;\n    }\n}\n",
  "sourcePath": "/PELO/PeloToken/contracts/MintableToken.sol",
  "compiler": {
    "name": "solc",
    "version": "0.4.23+commit.124ca40d.Emscripten.clang"
  },
  "schemaVersion": "2.0.0",
  "updatedAt": "2018-05-07T06:21:08.219Z"
}