{
  "contractName": "PeloponnesianToken",
  "abi": [
    {
      "constant": true,
      "inputs": [],
      "name": "maximumSupply",
      "outputs": [
        {
          "name": "",
          "type": "uint256"
        }
      ],
      "payable": false,
      "stateMutability": "view",
      "type": "function"
    },
    {
      "constant": true,
      "inputs": [],
      "name": "mintingFinished",
      "outputs": [
        {
          "name": "",
          "type": "bool"
        }
      ],
      "payable": false,
      "stateMutability": "view",
      "type": "function"
    },
    {
      "constant": true,
      "inputs": [],
      "name": "name",
      "outputs": [
        {
          "name": "",
          "type": "string"
        }
      ],
      "payable": false,
      "stateMutability": "view",
      "type": "function"
    },
    {
      "constant": false,
      "inputs": [
        {
          "name": "_spender",
          "type": "address"
        },
        {
          "name": "_value",
          "type": "uint256"
        }
      ],
      "name": "approve",
      "outputs": [
        {
          "name": "",
          "type": "bool"
        }
      ],
      "payable": false,
      "stateMutability": "nonpayable",
      "type": "function"
    },
    {
      "constant": true,
      "inputs": [],
      "name": "totalSupply",
      "outputs": [
        {
          "name": "",
          "type": "uint256"
        }
      ],
      "payable": false,
      "stateMutability": "view",
      "type": "function"
    },
    {
      "constant": true,
      "inputs": [],
      "name": "decimals",
      "outputs": [
        {
          "name": "",
          "type": "uint256"
        }
      ],
      "payable": false,
      "stateMutability": "view",
      "type": "function"
    },
    {
      "constant": false,
      "inputs": [],
      "name": "unpause",
      "outputs": [],
      "payable": false,
      "stateMutability": "nonpayable",
      "type": "function"
    },
    {
      "constant": false,
      "inputs": [
        {
          "name": "to",
          "type": "address"
        },
        {
          "name": "amount",
          "type": "uint256"
        }
      ],
      "name": "mint",
      "outputs": [
        {
          "name": "",
          "type": "bool"
        }
      ],
      "payable": false,
      "stateMutability": "nonpayable",
      "type": "function"
    },
    {
      "constant": true,
      "inputs": [],
      "name": "paused",
      "outputs": [
        {
          "name": "",
          "type": "bool"
        }
      ],
      "payable": false,
      "stateMutability": "view",
      "type": "function"
    },
    {
      "constant": false,
      "inputs": [
        {
          "name": "_spender",
          "type": "address"
        },
        {
          "name": "_subtractedValue",
          "type": "uint256"
        }
      ],
      "name": "decreaseApproval",
      "outputs": [
        {
          "name": "success",
          "type": "bool"
        }
      ],
      "payable": false,
      "stateMutability": "nonpayable",
      "type": "function"
    },
    {
      "constant": true,
      "inputs": [
        {
          "name": "owner",
          "type": "address"
        }
      ],
      "name": "balanceOf",
      "outputs": [
        {
          "name": "",
          "type": "uint256"
        }
      ],
      "payable": false,
      "stateMutability": "view",
      "type": "function"
    },
    {
      "constant": false,
      "inputs": [],
      "name": "finishMinting",
      "outputs": [
        {
          "name": "",
          "type": "bool"
        }
      ],
      "payable": false,
      "stateMutability": "nonpayable",
      "type": "function"
    },
    {
      "constant": false,
      "inputs": [],
      "name": "pause",
      "outputs": [],
      "payable": false,
      "stateMutability": "nonpayable",
      "type": "function"
    },
    {
      "constant": true,
      "inputs": [],
      "name": "owner",
      "outputs": [
        {
          "name": "",
          "type": "address"
        }
      ],
      "payable": false,
      "stateMutability": "view",
      "type": "function"
    },
    {
      "constant": true,
      "inputs": [],
      "name": "symbol",
      "outputs": [
        {
          "name": "",
          "type": "string"
        }
      ],
      "payable": false,
      "stateMutability": "view",
      "type": "function"
    },
    {
      "constant": false,
      "inputs": [
        {
          "name": "_spender",
          "type": "address"
        },
        {
          "name": "_addedValue",
          "type": "uint256"
        }
      ],
      "name": "increaseApproval",
      "outputs": [
        {
          "name": "success",
          "type": "bool"
        }
      ],
      "payable": false,
      "stateMutability": "nonpayable",
      "type": "function"
    },
    {
      "constant": false,
      "inputs": [
        {
          "name": "newOwner",
          "type": "address"
        }
      ],
      "name": "transferOwnership",
      "outputs": [],
      "payable": false,
      "stateMutability": "nonpayable",
      "type": "function"
    },
    {
      "inputs": [],
      "payable": false,
      "stateMutability": "nonpayable",
      "type": "constructor"
    },
    {
      "anonymous": false,
      "inputs": [
        {
          "indexed": true,
          "name": "_to",
          "type": "address"
        },
        {
          "indexed": false,
          "name": "_value",
          "type": "uint256"
        }
      ],
      "name": "ClaimTransfer",
      "type": "event"
    },
    {
      "anonymous": false,
      "inputs": [
        {
          "indexed": true,
          "name": "to",
          "type": "address"
        },
        {
          "indexed": false,
          "name": "amount",
          "type": "uint256"
        }
      ],
      "name": "Mint",
      "type": "event"
    },
    {
      "anonymous": false,
      "inputs": [],
      "name": "MintFinished",
      "type": "event"
    },
    {
      "anonymous": false,
      "inputs": [],
      "name": "Pause",
      "type": "event"
    },
    {
      "anonymous": false,
      "inputs": [],
      "name": "Unpause",
      "type": "event"
    },
    {
      "anonymous": false,
      "inputs": [
        {
          "indexed": true,
          "name": "previousOwner",
          "type": "address"
        },
        {
          "indexed": true,
          "name": "newOwner",
          "type": "address"
        }
      ],
      "name": "OwnershipTransferred",
      "type": "event"
    },
    {
      "anonymous": false,
      "inputs": [
        {
          "indexed": true,
          "name": "from",
          "type": "address"
        },
        {
          "indexed": true,
          "name": "to",
          "type": "address"
        },
        {
          "indexed": false,
          "name": "value",
          "type": "uint256"
        }
      ],
      "name": "Transfer",
      "type": "event"
    },
    {
      "anonymous": false,
      "inputs": [
        {
          "indexed": true,
          "name": "owner",
          "type": "address"
        },
        {
          "indexed": true,
          "name": "spender",
          "type": "address"
        },
        {
          "indexed": false,
          "name": "value",
          "type": "uint256"
        }
      ],
      "name": "Approval",
      "type": "event"
    },
    {
      "constant": false,
      "inputs": [
        {
          "name": "_to",
          "type": "address"
        },
        {
          "name": "_value",
          "type": "uint256"
        }
      ],
      "name": "transfer",
      "outputs": [
        {
          "name": "",
          "type": "bool"
        }
      ],
      "payable": false,
      "stateMutability": "nonpayable",
      "type": "function"
    },
    {
      "constant": false,
      "inputs": [
        {
          "name": "_from",
          "type": "address"
        },
        {
          "name": "_to",
          "type": "address"
        },
        {
          "name": "_value",
          "type": "uint256"
        }
      ],
      "name": "transferFrom",
      "outputs": [
        {
          "name": "",
          "type": "bool"
        }
      ],
      "payable": false,
      "stateMutability": "nonpayable",
      "type": "function"
    },
    {
      "constant": true,
      "inputs": [
        {
          "name": "_owner",
          "type": "address"
        },
        {
          "name": "_spender",
          "type": "address"
        }
      ],
      "name": "allowance",
      "outputs": [
        {
          "name": "remaining",
          "type": "uint256"
        }
      ],
      "payable": false,
      "stateMutability": "view",
      "type": "function"
    },
    {
      "constant": false,
      "inputs": [
        {
          "name": "_spender",
          "type": "address"
        },
        {
          "name": "_value",
          "type": "uint256"
        },
        {
          "name": "_extraData",
          "type": "bytes"
        }
      ],
      "name": "approveAndCall",
      "outputs": [
        {
          "name": "success",
          "type": "bool"
        }
      ],
      "payable": false,
      "stateMutability": "nonpayable",
      "type": "function"
    }
  ],
  "bytecode": "0x6003805460a060020a60ff021916905560c0604052600d60808190527f50656c6f706f6e6e657369616e0000000000000000000000000000000000000060a0908152620000509160059190620000e2565b506040805180820190915260048082527f50454c4f0000000000000000000000000000000000000000000000000000000060209092019182526200009791600691620000e2565b5060126007556b204fce5e3e25026110000000600855348015620000ba57600080fd5b5060085460038054600160a060020a03191633600160a060020a031617905560045562000187565b828054600181600116156101000203166002900490600052602060002090601f016020900481019282601f106200012557805160ff191683800117855562000155565b8280016001018555821562000155579182015b828111156200015557825182559160200191906001019062000138565b506200016392915062000167565b5090565b6200018491905b808211156200016357600081556001016200016e565b90565b6110af80620001976000396000f30060806040526004361061011c5763ffffffff7c01000000000000000000000000000000000000000000000000000000006000350416630480e58b811461012157806305d2035b1461014857806306fdde0314610171578063095ea7b3146101fb57806318160ddd1461021f57806323b872dd14610234578063313ce5671461025e5780633f4ba83a1461027357806340c10f191461028a5780635c975abb146102ae57806366188463146102c357806370a08231146102e75780637d64bcb4146103085780638456cb591461031d5780638da5cb5b1461033257806395d89b4114610363578063a9059cbb14610378578063cae9ca511461039c578063d73dd62314610405578063dd62ed3e14610429578063f2fde38b14610450575b600080fd5b34801561012d57600080fd5b50610136610471565b60408051918252519081900360200190f35b34801561015457600080fd5b5061015d610477565b604080519115158252519081900360200190f35b34801561017d57600080fd5b50610186610499565b6040805160208082528351818301528351919283929083019185019080838360005b838110156101c05781810151838201526020016101a8565b50505050905090810190601f1680156101ed5780820380516001836020036101000a031916815260200191505b509250505060405180910390f35b34801561020757600080fd5b5061015d600160a060020a0360043516602435610527565b34801561022b57600080fd5b50610136610552565b34801561024057600080fd5b5061015d600160a060020a0360043581169060243516604435610558565b34801561026a57600080fd5b5061013661057c565b34801561027f57600080fd5b50610288610582565b005b34801561029657600080fd5b5061015d600160a060020a03600435166024356105fe565b3480156102ba57600080fd5b5061015d610744565b3480156102cf57600080fd5b5061015d600160a060020a0360043516602435610754565b3480156102f357600080fd5b50610136600160a060020a0360043516610778565b34801561031457600080fd5b5061015d610793565b34801561032957600080fd5b50610288610840565b34801561033e57600080fd5b506103476108c1565b60408051600160a060020a039092168252519081900360200190f35b34801561036f57600080fd5b506101866108d0565b34801561038457600080fd5b5061015d600160a060020a036004351660243561092b565b3480156103a857600080fd5b50604080516020600460443581810135601f810184900484028501840190955284845261015d948235600160a060020a031694602480359536959460649492019190819084018382808284375094975061094b9650505050505050565b34801561041157600080fd5b5061015d600160a060020a0360043516602435610a7e565b34801561043557600080fd5b50610136600160a060020a0360043581169060243516610aa2565b34801561045c57600080fd5b50610288600160a060020a0360043516610aba565b60085481565b6003547501000000000000000000000000000000000000000000900460ff1681565b6005805460408051602060026001851615610100026000190190941693909304601f8101849004840282018401909252818152929183018282801561051f5780601f106104f45761010080835404028352916020019161051f565b820191906000526020600020905b81548152906001019060200180831161050257829003601f168201915b505050505081565b60035460009060a060020a900460ff161561054157600080fd5b61054b8383610b55565b9392505050565b60005490565b600060033660641461056657fe5b610571858585610bbf565b91505b509392505050565b60075481565b60035433600160a060020a0390811691161461059d57600080fd5b60035460a060020a900460ff1615156105b557600080fd5b6003805474ff0000000000000000000000000000000000000000191690556040517f7805862f689e2f13df9f062ff482ad3ad112aca9e0847911ed832e158c525b3390600090a1565b60035460009033600160a060020a0390811691161461061c57600080fd5b6003547501000000000000000000000000000000000000000000900460ff161561064557600080fd5b8160045461065e82600054610be490919063ffffffff16565b111561066957600080fd5b60005461067c908463ffffffff610be416565b6000908155600160a060020a0385168152600160205260409020546106a7908463ffffffff610be416565b600160a060020a038516600081815260016020908152604091829020939093558051868152905191927f0f6798a560793a54c3bcfe86a93cde1e73087d944c0ea20544137d412139688592918290030190a2604080518481529051600160a060020a038616916000917fddf252ad1be2c89b69c2b068fc378daa952ba7f163c4a11628f55a4df523b3ef9181900360200190a35060019392505050565b60035460a060020a900460ff1681565b60035460009060a060020a900460ff161561076e57600080fd5b61054b8383610bf3565b600160a060020a031660009081526001602052604090205490565b60035460009033600160a060020a039081169116146107b157600080fd5b6003547501000000000000000000000000000000000000000000900460ff16156107da57600080fd5b6003805475ff000000000000000000000000000000000000000000191675010000000000000000000000000000000000000000001790556040517fae5184fba832cb2b1f702aca6117b8d265eaf03ad33eb133f19dde0f5920fa0890600090a150600190565b60035433600160a060020a0390811691161461085b57600080fd5b60035460a060020a900460ff161561087257600080fd5b6003805474ff0000000000000000000000000000000000000000191660a060020a1790556040517f6985a02210a168e66602d3235cb6db0e70f92b3ba4d376a33c0f3d9434bff62590600090a1565b600354600160a060020a031681565b6006805460408051602060026001851615610100026000190190941693909304601f8101849004840282018401909252818152929183018282801561051f5780601f106104f45761010080835404028352916020019161051f565b600060023660441461093957fe5b6109438484610cec565b949350505050565b6000836109588185610527565b156105745780600160a060020a0316638f4ffcb1338630876040518563ffffffff167c01000000000000000000000000000000000000000000000000000000000281526004018085600160a060020a0316600160a060020a0316815260200184815260200183600160a060020a0316600160a060020a0316815260200180602001828103825283818151815260200191508051906020019080838360005b83811015610a0e5781810151838201526020016109f6565b50505050905090810190601f168015610a3b5780820380516001836020036101000a031916815260200191505b5095505050505050600060405180830381600087803b158015610a5d57600080fd5b505af1158015610a71573d6000803e3d6000fd5b5050505060019150610574565b60035460009060a060020a900460ff1615610a9857600080fd5b61054b8383610d10565b6000600236604414610ab057fe5b6109438484610db2565b60035433600160a060020a03908116911614610ad557600080fd5b80600160a060020a0381161515610aeb57600080fd5b600354604051600160a060020a038085169216907f8be0079c531659141344cd1fd0a4f28419497f9722a3daafe3b4186f6b6457e090600090a3506003805473ffffffffffffffffffffffffffffffffffffffff1916600160a060020a0392909216919091179055565b600160a060020a03338116600081815260026020908152604080832094871680845294825280832086905580518681529051929493927f8c5be1e5ebec7d5bd14f71427d1e84f3dd0314c0f7b2291e5b200ac8c7c3b925929181900390910190a350600192915050565b60035460009060a060020a900460ff1615610bd957600080fd5b610943848484610ddd565b60008282018381101561054b57fe5b600160a060020a03338116600090815260026020908152604080832093861683529290529081205480831115610c5057600160a060020a033381166000908152600260209081526040808320938816835292905290812055610c87565b610c60818463ffffffff610f6f16565b600160a060020a033381166000908152600260209081526040808320938916835292905220555b600160a060020a0333811660008181526002602090815260408083209489168084529482529182902054825190815291517f8c5be1e5ebec7d5bd14f71427d1e84f3dd0314c0f7b2291e5b200ac8c7c3b9259281900390910190a35060019392505050565b60035460009060a060020a900460ff1615610d0657600080fd5b61054b8383610f81565b600160a060020a033381166000908152600260209081526040808320938616835292905290812054610d48908363ffffffff610be416565b600160a060020a0333811660008181526002602090815260408083209489168084529482529182902085905581519485529051929391927f8c5be1e5ebec7d5bd14f71427d1e84f3dd0314c0f7b2291e5b200ac8c7c3b9259281900390910190a350600192915050565b600160a060020a03918216600090815260026020908152604080832093909416825291909152205490565b600082600160a060020a0381161515610df557600080fd5b600160a060020a03851660009081526001602052604090205485908490811115610e1e57600080fd5b600160a060020a038088166000908152600260209081526040808320938a1683529290522054879087908790811115610e5657600080fd5b600160a060020a038a16600090815260016020526040902054610e7f908963ffffffff610f6f16565b600160a060020a03808c1660009081526001602052604080822093909355908b1681522054610eb4908963ffffffff610be416565b600160a060020a03808b166000908152600160209081526040808320949094558d8316825260028152838220339093168252919091522054610efc908963ffffffff610f6f16565b600160a060020a03808c16600081815260026020908152604080832033861684528252918290209490945580518c81529051928d169391927fddf252ad1be2c89b69c2b068fc378daa952ba7f163c4a11628f55a4df523b3ef929181900390910190a35060019998505050505050505050565b600082821115610f7b57fe5b50900390565b600082600160a060020a0381161515610f9957600080fd5b33600160a060020a0381166000908152600160205260409020548490811115610fc157600080fd5b600160a060020a033316600090815260016020526040902054610fea908663ffffffff610f6f16565b600160a060020a03338116600090815260016020526040808220939093559088168152205461101f908663ffffffff610be416565b600160a060020a038088166000818152600160209081526040918290209490945580518981529051919333909316927fddf252ad1be2c89b69c2b068fc378daa952ba7f163c4a11628f55a4df523b3ef92918290030190a3506001959450505050505600a165627a7a72305820b3877359f69ff06494c0a7e1b7024c87736298d27b6e0dc97c25ed9597fa63bd0029",
  "source": "pragma solidity ^0.4.23;\n\nimport { MintableToken } from \"./MintableToken.sol\";\nimport './Protection.sol';\nimport './TokenRecipient.sol';\nimport './PausableToken.sol';\n\n\ncontract PeloponnesianToken is Protection,PausableToken,MintableToken {\n    string public name = \"Peloponnesian\";\n    string public symbol = \"PELO\";\n    uint256 public decimals = 18;\n    uint256 public maximumSupply = 100 * 10**8 * uint256(10**decimals);\n\n    constructor() public MintableToken(maximumSupply)\n    {\n    }\n\n    /**\n\t * @dev Logged when claimed tokens were transferred to the owner.\n\t *\n\t * @param _to address of the owner, tokens were transferred to\n\t * @param _value number of tokens transferred\n\t */\n    event ClaimTransfer (address indexed _to, uint256 _value);\n\n\n\n    /**\n     * @dev Transfer with short address attack protection\n     */\n    function transfer(address _to, uint _value) public onlyPayloadSize(2) returns (bool) {\n        return super.transfer(_to, _value);\n    }\n\n    /**\n     * @dev TransferFrom with short address attack protection\n     */\n    function transferFrom(address _from, address _to, uint _value) public onlyPayloadSize(3) returns (bool) {\n        return super.transferFrom(_from, _to, _value);\n    }\n\n    /**\n     * @dev Allowance with short address attack protection\n     */\n    function allowance(address _owner, address _spender) public onlyPayloadSize(2) constant returns (uint256 remaining) {\n        return super.allowance(_owner, _spender);\n    }\n\n    /**\n     * @dev Approve and then communicate the approved contract in a single transaction\n     */\n    function approveAndCall(address _spender, uint256 _value, bytes _extraData) public returns (bool success) {\n        TokenRecipient spender = TokenRecipient(_spender);\n        if (approve(_spender, _value)) {\n            spender.receiveApproval(msg.sender, _value, this, _extraData);\n            return true;\n        }\n    }\n\n\n}\n",
  "sourcePath": "/PELO/PeloToken/contracts/PeloponnesianToken.sol",
  "compiler": {
    "name": "solc",
    "version": "0.4.23+commit.124ca40d.Emscripten.clang"
  },
  "schemaVersion": "2.0.0",
  "updatedAt": "2018-05-07T06:21:08.220Z"
}