{
  "contractName": "SampleRecipientSuccess",
  "abi": [
    {
      "constant": true,
      "inputs": [],
      "name": "value",
      "outputs": [
        {
          "name": "",
          "type": "uint256"
        }
      ],
      "payable": false,
      "stateMutability": "view",
      "type": "function"
    },
    {
      "constant": true,
      "inputs": [],
      "name": "tokenContract",
      "outputs": [
        {
          "name": "",
          "type": "address"
        }
      ],
      "payable": false,
      "stateMutability": "view",
      "type": "function"
    },
    {
      "constant": true,
      "inputs": [],
      "name": "extraData",
      "outputs": [
        {
          "name": "",
          "type": "bytes"
        }
      ],
      "payable": false,
      "stateMutability": "view",
      "type": "function"
    },
    {
      "constant": true,
      "inputs": [],
      "name": "from",
      "outputs": [
        {
          "name": "",
          "type": "address"
        }
      ],
      "payable": false,
      "stateMutability": "view",
      "type": "function"
    },
    {
      "anonymous": false,
      "inputs": [
        {
          "indexed": false,
          "name": "_value",
          "type": "uint256"
        }
      ],
      "name": "ReceivedApproval",
      "type": "event"
    },
    {
      "constant": false,
      "inputs": [
        {
          "name": "_from",
          "type": "address"
        },
        {
          "name": "_value",
          "type": "uint256"
        },
        {
          "name": "_tokenContract",
          "type": "address"
        },
        {
          "name": "_extraData",
          "type": "bytes"
        }
      ],
      "name": "receiveApproval",
      "outputs": [],
      "payable": false,
      "stateMutability": "nonpayable",
      "type": "function"
    }
  ],
  "bytecode": "0x608060405234801561001057600080fd5b50610423806100206000396000f30060806040526004361061006c5763ffffffff7c01000000000000000000000000000000000000000000000000000000006000350416633fa4f245811461007157806355a373d614610098578063609d3334146100d65780638f4ffcb114610160578063d5ce3389146101df575b600080fd5b34801561007d57600080fd5b506100866101f4565b60408051918252519081900360200190f35b3480156100a457600080fd5b506100ad6101fa565b6040805173ffffffffffffffffffffffffffffffffffffffff9092168252519081900360200190f35b3480156100e257600080fd5b506100eb610216565b6040805160208082528351818301528351919283929083019185019080838360005b8381101561012557818101518382015260200161010d565b50505050905090810190601f1680156101525780820380516001836020036101000a031916815260200191505b509250505060405180910390f35b34801561016c57600080fd5b50604080516020601f6064356004818101359283018490048402850184019095528184526101dd9473ffffffffffffffffffffffffffffffffffffffff8135811695602480359660443590931695369560849492019181908401838280828437509497506102a49650505050505050565b005b3480156101eb57600080fd5b506100ad610340565b60015481565b60025473ffffffffffffffffffffffffffffffffffffffff1681565b6003805460408051602060026001851615610100026000190190941693909304601f8101849004840282018401909252818152929183018282801561029c5780601f106102715761010080835404028352916020019161029c565b820191906000526020600020905b81548152906001019060200180831161027f57829003601f168201915b505050505081565b6000805473ffffffffffffffffffffffffffffffffffffffff80871673ffffffffffffffffffffffffffffffffffffffff199283161790925560018590556002805492851692909116919091179055805161030690600390602084019061035c565b506040805184815290517f2db24179b782aab7c5ab64add7f84d4f6c845d0779695371f29be1f658d043cd9181900360200190a150505050565b60005473ffffffffffffffffffffffffffffffffffffffff1681565b828054600181600116156101000203166002900490600052602060002090601f016020900481019282601f1061039d57805160ff19168380011785556103ca565b828001600101855582156103ca579182015b828111156103ca5782518255916020019190600101906103af565b506103d69291506103da565b5090565b6103f491905b808211156103d657600081556001016103e0565b905600a165627a7a72305820898a3475aea639524e06761f1cc13ddab4e16c6c5011b072d74d6721a3944c680029",
  "source": "\npragma solidity ^0.4.23;\n\ncontract SampleRecipientSuccess {\n    /* @dev A Generic receiving function for contracts that accept tokens */\n    address public from;\n    uint256 public value;\n    address public tokenContract;\n    bytes public extraData;\n\n    event ReceivedApproval(uint256 _value);\n\n    function receiveApproval(address _from, uint256 _value, address _tokenContract, bytes _extraData)  public {\n        from = _from;\n        value = _value;\n        tokenContract = _tokenContract;\n        extraData = _extraData;\n        emit ReceivedApproval(_value);\n    }\n}\n",
  "sourcePath": "/PELO/PeloToken/contracts/SampleRecipientSuccess.sol",
  "compiler": {
    "name": "solc",
    "version": "0.4.23+commit.124ca40d.Emscripten.clang"
  },
  "schemaVersion": "2.0.0",
  "updatedAt": "2018-05-07T10:16:04.517Z"
}